{
  "contractName": "Marketplace",
  "abi": [
    {
      "inputs": [],
      "stateMutability": "nonpayable",
      "type": "constructor"
    },
    {
      "inputs": [],
      "name": "owner",
      "outputs": [
        {
          "internalType": "address",
          "name": "",
          "type": "address"
        }
      ],
      "stateMutability": "view",
      "type": "function",
      "constant": true
    },
    {
      "inputs": [
        {
          "internalType": "uint256",
          "name": "",
          "type": "uint256"
        }
      ],
      "name": "products",
      "outputs": [
        {
          "internalType": "string",
          "name": "name",
          "type": "string"
        },
        {
          "internalType": "uint256",
          "name": "price",
          "type": "uint256"
        },
        {
          "internalType": "uint256",
          "name": "in_stock",
          "type": "uint256"
        }
      ],
      "stateMutability": "view",
      "type": "function",
      "constant": true
    },
    {
      "inputs": [],
      "name": "test",
      "outputs": [
        {
          "internalType": "uint256",
          "name": "",
          "type": "uint256"
        }
      ],
      "stateMutability": "view",
      "type": "function",
      "constant": true
    },
    {
      "inputs": [
        {
          "internalType": "uint256",
          "name": "_index",
          "type": "uint256"
        },
        {
          "internalType": "uint256",
          "name": "quantity",
          "type": "uint256"
        }
      ],
      "name": "buyProduct",
      "outputs": [],
      "stateMutability": "payable",
      "type": "function",
      "payable": true
    },
    {
      "inputs": [
        {
          "internalType": "uint256",
          "name": "prod_id",
          "type": "uint256"
        },
        {
          "internalType": "uint256",
          "name": "quantity",
          "type": "uint256"
        }
      ],
      "name": "restockProduct",
      "outputs": [],
      "stateMutability": "nonpayable",
      "type": "function"
    },
    {
      "inputs": [
        {
          "internalType": "uint256",
          "name": "prod_id",
          "type": "uint256"
        },
        {
          "internalType": "uint256",
          "name": "price",
          "type": "uint256"
        }
      ],
      "name": "repriceProduct",
      "outputs": [],
      "stateMutability": "nonpayable",
      "type": "function"
    }
  ],
  "bytecode": "0x6080604052336000806101000a81548173ffffffffffffffffffffffffffffffffffffffff021916908373ffffffffffffffffffffffffffffffffffffffff16021790555060006001553480156200005657600080fd5b5060405180606001604052806040518060400160405280600581526020017f5761746572000000000000000000000000000000000000000000000000000000815250815260200167016345785d8a00008152602001600a815250600260008081526020019081526020016000206000820151816000019081620000da91906200071a565b50602082015181600101556040820151816002015590505060405180606001604052806040518060400160405280600481526020017f4265657200000000000000000000000000000000000000000000000000000000815250815260200167016345785d8a00008152602001600a815250600260006001815260200190815260200160002060008201518160000190816200017691906200071a565b50602082015181600101556040820151816002015590505060405180606001604052806040518060400160405280600681526020017f4368656573650000000000000000000000000000000000000000000000000000815250815260200167016345785d8a00008152602001600a815250600260006002815260200190815260200160002060008201518160000190816200021291906200071a565b50602082015181600101556040820151816002015590505060405180606001604052806040518060400160405280600681526020017f46696c6c65740000000000000000000000000000000000000000000000000000815250815260200167016345785d8a00008152602001600a81525060026000600381526020019081526020016000206000820151816000019081620002ae91906200071a565b50602082015181600101556040820151816002015590505060405180606001604052806040518060400160405280600581526020017f4f6e696f6e000000000000000000000000000000000000000000000000000000815250815260200167016345785d8a00008152602001600a815250600260006004815260200190815260200160002060008201518160000190816200034a91906200071a565b50602082015181600101556040820151816002015590505060405180606001604052806040518060400160405280600681526020017f546f6d61746f0000000000000000000000000000000000000000000000000000815250815260200167016345785d8a00008152602001600a81525060026000600581526020019081526020016000206000820151816000019081620003e691906200071a565b50602082015181600101556040820151816002015590505060405180606001604052806040518060400160405280600481526020017f4d696c6b00000000000000000000000000000000000000000000000000000000815250815260200167016345785d8a00008152602001600a815250600260006006815260200190815260200160002060008201518160000190816200048291906200071a565b50602082015181600101556040820151816002015590505062000801565b600081519050919050565b7f4e487b7100000000000000000000000000000000000000000000000000000000600052604160045260246000fd5b7f4e487b7100000000000000000000000000000000000000000000000000000000600052602260045260246000fd5b600060028204905060018216806200052257607f821691505b602082108103620005385762000537620004da565b5b50919050565b60008190508160005260206000209050919050565b60006020601f8301049050919050565b600082821b905092915050565b600060088302620005a27fffffffffffffffffffffffffffffffffffffffffffffffffffffffffffffffff8262000563565b620005ae868362000563565b95508019841693508086168417925050509392505050565b6000819050919050565b6000819050919050565b6000620005fb620005f5620005ef84620005c6565b620005d0565b620005c6565b9050919050565b6000819050919050565b6200061783620005da565b6200062f620006268262000602565b84845462000570565b825550505050565b600090565b6200064662000637565b620006538184846200060c565b505050565b5b818110156200067b576200066f6000826200063c565b60018101905062000659565b5050565b601f821115620006ca5762000694816200053e565b6200069f8462000553565b81016020851015620006af578190505b620006c7620006be8562000553565b83018262000658565b50505b505050565b600082821c905092915050565b6000620006ef60001984600802620006cf565b1980831691505092915050565b60006200070a8383620006dc565b9150826002028217905092915050565b6200072582620004a0565b67ffffffffffffffff811115620007415762000740620004ab565b5b6200074d825462000509565b6200075a8282856200067f565b600060209050601f8311600181146200079257600084156200077d578287015190505b620007898582620006fc565b865550620007f9565b601f198416620007a2866200053e565b60005b82811015620007cc57848901518255600182019150602085019450602081019050620007a5565b86831015620007ec5784890151620007e8601f891682620006dc565b8355505b6001600288020188555050505b505050505050565b6106d980620008116000396000f3fe6080604052600436106100555760003560e01c806348d5aeed1461005a57806353b628661461008357806362f14dd01461009f5780637acc0b20146100c85780638da5cb5b14610107578063f8a8fd6d14610132575b600080fd5b34801561006657600080fd5b50610081600480360381019061007c91906103a9565b61015d565b005b61009d600480360381019061009891906103a9565b6101b6565b005b3480156100ab57600080fd5b506100c660048036038101906100c191906103a9565b610247565b005b3480156100d457600080fd5b506100ef60048036038101906100ea91906103e9565b610292565b6040516100fe939291906104b5565b60405180910390f35b34801561011357600080fd5b5061011c610344565b6040516101299190610534565b60405180910390f35b34801561013e57600080fd5b50610147610368565b604051610154919061054f565b60405180910390f35b60078210801561016e575060008210155b61017757600080fd5b6000811161018457600080fd5b67016345785d8a0000816101989190610599565b60026000848152602001908152602001600020600101819055505050565b6007821080156101c7575060008210155b6101d057600080fd5b60026000838152602001908152602001600020600101543410156101f357600080fd5b806002600084815260200190815260200160002060020154101561021657600080fd5b8060026000848152602001908152602001600020600201600082825461023c91906105db565b925050819055505050565b600782108015610258575060008210155b61026157600080fd5b80600260008481526020019081526020016000206002016000828254610287919061060f565b925050819055505050565b60026020528060005260406000206000915090508060000180546102b590610672565b80601f01602080910402602001604051908101604052809291908181526020018280546102e190610672565b801561032e5780601f106103035761010080835404028352916020019161032e565b820191906000526020600020905b81548152906001019060200180831161031157829003601f168201915b5050505050908060010154908060020154905083565b60008054906101000a900473ffffffffffffffffffffffffffffffffffffffff1681565b60015481565b600080fd5b6000819050919050565b61038681610373565b811461039157600080fd5b50565b6000813590506103a38161037d565b92915050565b600080604083850312156103c0576103bf61036e565b5b60006103ce85828601610394565b92505060206103df85828601610394565b9150509250929050565b6000602082840312156103ff576103fe61036e565b5b600061040d84828501610394565b91505092915050565b600081519050919050565b600082825260208201905092915050565b60005b83811015610450578082015181840152602081019050610435565b60008484015250505050565b6000601f19601f8301169050919050565b600061047882610416565b6104828185610421565b9350610492818560208601610432565b61049b8161045c565b840191505092915050565b6104af81610373565b82525050565b600060608201905081810360008301526104cf818661046d565b90506104de60208301856104a6565b6104eb60408301846104a6565b949350505050565b600073ffffffffffffffffffffffffffffffffffffffff82169050919050565b600061051e826104f3565b9050919050565b61052e81610513565b82525050565b60006020820190506105496000830184610525565b92915050565b600060208201905061056460008301846104a6565b92915050565b7f4e487b7100000000000000000000000000000000000000000000000000000000600052601160045260246000fd5b60006105a482610373565b91506105af83610373565b92508282026105bd81610373565b915082820484148315176105d4576105d361056a565b5b5092915050565b60006105e682610373565b91506105f183610373565b92508282039050818111156106095761060861056a565b5b92915050565b600061061a82610373565b915061062583610373565b925082820190508082111561063d5761063c61056a565b5b92915050565b7f4e487b7100000000000000000000000000000000000000000000000000000000600052602260045260246000fd5b6000600282049050600182168061068a57607f821691505b60208210810361069d5761069c610643565b5b5091905056fea2646970667358221220f7e9f4c4399595adbfa78dabcf6f11e9ec96f8645e6e86211f84572db1bf85fc64736f6c63430008110033",
  "immutableReferences": {},
  "source": "pragma solidity ^0.8.0;\r\n\r\ncontract Marketplace {\r\n  address public owner = msg.sender;\r\n  uint public test = 0;\r\n  struct Product {\r\n    string name;\r\n    uint256 price;\r\n    uint in_stock;\r\n  }\r\n\r\n    mapping (uint => Product) public products;\r\n\r\n  constructor() {\r\n    products[0] = Product(\"Water\",1e17,10);\r\n    products[1] = Product(\"Beer\",1e17,10);\r\n    products[2] = Product(\"Cheese\",1e17,10);\r\n    products[3] = Product(\"Fillet\",1e17,10);\r\n    products[4] = Product(\"Onion\",1e17,10);\r\n    products[5] = Product(\"Tomato\",1e17,10);\r\n    products[6] = Product(\"Milk\",1e17,10);\r\n  }\r\n\r\n  function buyProduct(uint256 _index,uint quantity) external payable {\r\n    require(_index < 7 && _index >= 0);\r\n    require(msg.value >= products[_index].price);\r\n    require(products[_index].in_stock >= quantity);\r\n    products[_index].in_stock-=quantity;\r\n  }\r\n\r\n  function restockProduct(uint prod_id, uint quantity) external{\r\n      require(prod_id < 7 && prod_id >= 0);\r\n      products[prod_id].in_stock +=quantity;\r\n  }\r\n\r\n  function repriceProduct(uint prod_id, uint price) external{\r\n      require(prod_id < 7 && prod_id >= 0);\r\n      require(price > 0);\r\n      products[prod_id].price = price*1e17;\r\n  }\r\n}",
  "sourcePath": "C:\\Users\\97250\\Desktop\\Blockchain Project\\contracts\\Marketplace.sol",
  "compiler": {
    "name": "solc",
    "version": "0.8.17+commit.8df45f5f.Emscripten.clang"
  },
  "schemaVersion": "3.4.11",
  "updatedAt": "2023-01-22T11:09:36.686Z",
  "networkType": "ethereum",
  "devdoc": {
    "kind": "dev",
    "methods": {},
    "version": 1
  },
  "userdoc": {
    "kind": "user",
    "methods": {},
    "version": 1
  }
}